{
  "_format": "hh-sol-artifact-1",
  "contractName": "Counter",
  "sourceName": "contracts/FirstApp.sol",
  "abi": [
    {
      "inputs": [],
      "name": "count",
      "outputs": [
        {
          "internalType": "uint256",
          "name": "",
          "type": "uint256"
        }
      ],
      "stateMutability": "view",
      "type": "function"
    },
    {
      "inputs": [],
      "name": "dec",
      "outputs": [],
      "stateMutability": "nonpayable",
      "type": "function"
    },
    {
      "inputs": [],
      "name": "get",
      "outputs": [
        {
          "internalType": "uint256",
          "name": "",
          "type": "uint256"
        }
      ],
      "stateMutability": "view",
      "type": "function"
    },
    {
      "inputs": [],
      "name": "inc",
      "outputs": [],
      "stateMutability": "nonpayable",
      "type": "function"
    }
  ],
  "bytecode": "0x608060405234801561001057600080fd5b5061021e806100206000396000f3fe608060405234801561001057600080fd5b506004361061004c5760003560e01c806306661abd14610051578063371303c01461006f5780636d4ce63c14610079578063b3bcfa8214610097575b600080fd5b6100596100a1565b6040518082815260200191505060405180910390f35b6100776100a7565b005b610081610134565b6040518082815260200191505060405180910390f35b61009f61013d565b005b60005481565b7fffffffffffffffffffffffffffffffffffffffffffffffffffffffffffffffff6000541115610122576040517f08c379a00000000000000000000000000000000000000000000000000000000081526004018080602001828103825260228152602001806101c76022913960400191505060405180910390fd5b60016000808282540192505081905550565b60008054905090565b60008054116101b4576040517f08c379a000000000000000000000000000000000000000000000000000000000815260040180806020018281038252601f8152602001807f43616e6e6f742064656372656d656e7420636f756e742062656c6f7720302e0081525060200191505060405180910390fd5b6001600080828254039250508190555056fe43616e6e6f7420696e6372656d656e742070617374206d617820696e74656765722ea2646970667358221220a5f9e7799e70ff727e22405ce9bcadc66b2664e2735c4990fa739c1c00c4a58664736f6c63430007060033",
  "linkReferences": {},
  "deployedLinkReferences": {}
}